20240115SALE    D001    000125000025                                        
20240118SALE    D002    000089500012                                        
20240122SALE    D001    000234750008                                        
20240125RENT    D003    000000000000                                        
20240128SALE    D002    000156000015                                        
20240201SALE    D004    000445500003                                        
20240205SALE    D001    000067800020                                        
20240208RENT    D005    000000000000                                        
20240212SALE    D003    000298000007                                        
20240215SALE    D002    000512500004