A1234Computer Mouse       02995       0001500000100000050000300020000100
B5678Keyboard Wireless   04500       0000800000050000030000200015000050
C9012Monitor 24 inch     15999       0000250000015000010000150010000080
D3456USB Cable 6ft       00799       0002000000500000100000500040000200
E7890Laptop Stand        03299       0000600000080000040000300025000150
F2468Webcam HD 1080p     06995       0000450000060000025000200018000090
G1357Mouse Pad Large     01299       0001200000200000080000400035000180
H8024Headset Gaming      08999       0000350000040000020000150012000070
I4680HDMI Cable 10ft     01599       0001800000300000120000600045000250
J9753External Hard Drive 12499       0000280000025000015000100008000040